:03001E00012800B6
:10088A0043984053A23FC28E538EFE5389BF538969
:10089A00CF438E40758DFF758BD0D28ED2BCD29C41
:0508AA00D2ACD2AF2228
:0E08F70000007F017ED87D23DDFEDEFCDFFAEF
:0109050022CF
:080906008F993099FDC299227E
:1008AF008B778A788979AB77AA78A97912038360D5
:1008BF00130579E5797002057814F9120383FF1295
:0508CF00090680E22291
:0608D4008B7A8A7B897C0F
:1008DA00E4FEEEC39D5015AB7AAA7BA97C8E827585
:0C08EA00830012039CFF1209060E80E63A
:0108F60022DF
:030023000208626E
:10086200C0E0C0D075D000C000309815C29874089E
:100872002528F8A6990528E528D394204003752851
:0808820000D000D0D0D0E0321C
:0807F5007F107D2C7E007C00CA
:0807FD008F708E6F8D6E8C6D04
:10080500E4F571F572F576F575F574F5738F768EF9
:10081500758D748C73C2A5C2A2F572E4FFFEFDE569
:10082500735480FCE4FBFAF97880C31203D7700493
:10083500D2928002C292D2A5AF76AE75AD74AC737A
:1008450078011203E88F768E758D748C73C2A505B9
:0C08550072E572B420C5C2A5D2A2C2A2F6
:010861002274
:0803FB008F508E4F8D4E8C4D8A
:10040300E4755C35755B0CF55AF559F560F55FF5E8
:100413005EF55DF564F563F562F5617B477A86F910
:10042300F8D31203D750297F8E7E0C7D017C00AB5D
:1004330050AA4FA94EA84DC31203D75013E47568B1
:1004430006F567F566F565756C40F56BF56AF56954
:10045300AF50AE4FAD4EAC4D7B8E7A0C7901780028
:10046300D31203D750297F1C7E197D027C00AB5029
:10047300AA4FA94EA84DC31203D75013E4756805BC
:10048300F567F566F565756C20F56BF56AF569AF8B
:1004930050AE4FAD4EAC4D7B1C7A1979027800D328
:1004A3001203D750297F387E327D047C00AB50AADB
:1004B3004FA94EA84DC31203D75013E4756804F532
:1004C30067F566F565756C10F56BF56AF569AF5000
:1004D300AE4FAD4EAC4D7B387A3279047800D312EF
:1004E30003D750297F707E647D087C00AB50AA4FF0
:1004F300A94EA84DC31203D75013E4756803F567DB
:10050300F566F565756C08F56BF56AF569AF50AE80
:100513004FAD4EAC4D7B707A6479087800D31203EB
:10052300D750297FE07EC87D107C00AB50AA4FA92D
:100533004EA84DC31203D75013E4756802F567F54F
:1005430066F565756C04F56BF56AF569AF50AE4FEA
:10055300AD4EAC4D7BE07AC879107800D31203D747
:1005630050297FC07E917D217C00AB50AA4FA94EBC
:10057300A84DC31203D75013E4756801F567F566F8
:10058300F565756C02F56BF56AF569AF50AE4FAD65
:100593004EAC4D7BC07A9179217800D31203D750AA
:1005A300287F807E237D437C00AB50AA4FA94EA8B1
:1005B3004DC31203D75012E4F568F567F566F56588
:1005C300756C01F56BF56AF569AF68AE67AD66AC3E
:1005D3006578141203E8EF443CF564EE4480F56358
:1005E300ED448CF562ECF561AF64AE63AD62120766
:1005F300FDAF50AE4FAD4EAC4DE41202C48F548EDE
:10060300538D528C51AF6CAE6BAD6AAC69E4120280
:10061300C4AB54AA53A952A85112011E7B007A50AD
:1006230079C378461202278F548E538D528C511200
:100633000302EE3395E08F588E57F556F555FDAC12
:1006430055E41202C4A804A905AA06AB07AF54AE29
:1006530053AD52AC51120029C004C005C006C007F7
:10066300AF5CAE5BAD5AAC59E41202C4D003D00206
:10067300D001D00012011E12030278031203E8C056
:1006830004C005C006C007AF58AE57AD56AC557889
:100693000F1203E8D003D002D001D000EF4BFFEEDE
:1006A3004AFEED49FDEC48FCEF54F8F560EEF55FCA
:0E06B300EDF55EEC5407F55DAF60FC0207FD4F
:1006C1007F887E131200031207F57FA97EE17D006A
:1006D1007C081207FD7F427E4E7D007C181207FDCB
:1006E1007FB37E047D007C001207FD7F3C7E807D10
:1006F100CC7C001207FD7F057D581207F91207F522
:100701007FA97EE17D007C081207FD7F427E4E7D40
:10071100007C181207FD7FB37E047D007C00120768
:10072100FD7F3C7E807DCC7C001207FD7F057E0035
:100731007D587C001207FD1208F71208F712088A8B
:100741007F407E777D1B7C001203FBE528D394005C
:1007510040F91208F7E4F528FB7A007908AF01AEF9
:0807610002FDFC1203FB80E322
:03090E00DFFE22E7
:10000300AD07AC06ED1DAE0470011C4E600C7FF510
:0B00130012090E7FF512090E80EA2290
:1000260002036EE86480F8E933E83360110460F097
:10003600ED33EC337009E8FCE9FDEAFEEBFF220440
:1000460060DED3EB9FEA9EE99DE8C2E78CF0C2F73B
:1000560095F0400CE8CCF8E9CDF9EACEFAEBCFFB07
:1000660012033985D0F05804700320D5B3E8047024
:10007600075002B2D502037892D5EC0460F7E4CCBF
:10008600C0E0C398F8603B94186008400DD0E0FBD0
:10009600020350E4FBFAC9FC8028E830E406E4C910
:1000A600FBE4CAFCE830E305E4C9CACBFCE8540724
:1000B6006010F8C3E913F9EA13FAEB13FBEC13FC2F
:1000C600D8F130F52FC3E49CFCEF9BFFEE9AFEEDD2
:1000D60099FDD0E0FBEF4E4D4C701222DB0302037C
:1000E60075EC2CFCEF33FFEE33FEED33FDED30E720
:1000F600EB020350EF2BFFEE3AFEED39FDD0E0FBAD
:1001060050130BBB0003020378ED13FDEE13FEEF55
:0801160013FFEC13FC0203507F
:10011E00EC4D6011E8497017ED33EC3304600DE4DB
:10012E00FCFFFEFD22E933E8330470F802036E1281
:10013E00033958046009E4CC248150062850090282
:10014E000378284003020375C0E0EB4A7044B9807F
:10015E0006D0E0FB020364EF4E701CBD8008EBFF7F
:10016E00EAFEE9FD80EBE98DF0A4FEE5F002020760
:10017E00E9CDF9EAFEEBFFEF89F0A4FCE5F0CE89BC
:10018E00F0A42EFFE435F0CD89F0A42DFEE435F079
:10019E008067EF4E7005BD80D780C3EF8BF0A4ACA7
:1001AE00F0EE8BF0A42CFCE435F0F8EF8AF0A42CE2
:1001BE00E5F038FCE433CB8DF0A42CFCE5F03BF8F5
:1001CE00EE8AF0A42CFCE5F038F8E433CF89F0A4E5
:1001DE002CFCE5F038CF3400CE89F0A42FFFE5F0EB
:1001EE003EFEE433C98DF0A42EFEE5F039CD8AF043
:1001FE00A42FFFE5F03EFEE43DFD33D0E0FB5007BB
:10020E000BBB000F020378EC2CFCEF33FFEE33FE3A
:06021E00ED33FD02035068
:10022400020378EC5D046005E85904700302036E70
:10023400120339580460F6EC4860F2EC7004FDFED9
:10024400FF22C860DB2481C85009C39860025006AD
:100254000203759850CAF582E9294B4A7005AB82AE
:1002640002036475F0007C1A7880C3EF9BEE9AED6C
:1002740099400DC3EF9BFFEE9AFEED99FDE842F025
:10028400DC23ACF0D0E0FFD0E0FED0E0FDAB822078
:10029400E7101BEB60BAEC2CFCEF33FFEE33FEED02
:1002A40033FD020350E803F830E705C0F075F000B1
:1002B400EF2FFFEE33FEED33FD40B830E7C280AAE6
:1002C40075F020800E75F010800575F0087D007EB5
:1002D400007F003392D530D5031203C9EC334010AC
:1002E400EF33FFEE33FEED33FDEC33FCD5F0ED22BE
:0E02F400E5F0247EA2D513CC92E7CDCEFF22FA
:10030200EDD2E7CD33EC3392D524814006E4FFFEF3
:10031200FDFC22FCE4CFCECDCC24E0501174FF8052
:10032200EDC3CC13CCCD13CDCE13CECF13CF0470EF
:07033200F030D5DE0203C923
:10033900E9D2E7C933E833F892D5EDD2E7CD33EC0A
:0703490033FC5002B2D52283
:10035000EC30E7100FBF000C0EBE00080DBD00040E
:100360000BEB6014A2D5EB13FCED92E7FD2274FFBA
:10037000FCFDFEFF22E480F8A2D574FF13FC7D8013
:03038000E480EF27
:030000000207698B
:0C076900787FE4F6D8FD75817C0207B0B3
:10038300BB010689828A83E0225002E722BBFE0278
:09039300E32289828A83E49322AB
:10039C00BB010CE58229F582E5833AF583E0225016
:1003AC0006E92582F8E622BBFE06E92582F8E22260
:0D03BC00E58229F582E5833AF583E493227A
:0E03C900C3E49FFFE49EFEE49DFDE49CFC2245
:1003D700EB9FF5F0EA9E42F0E99D42F0E89C45F07C
:0103E70022F3
:1003E800E8600FEFC333FFEE33FEED33FDEC33FC73
:0303F800D8F12217
:100775000206C1E493A3F8E493A34003F68001F2D3
:1007850008DFF48029E493A3F85407240CC8C33385
:10079500C4540F4420C8834004F456800146F6DF54
:1007A500E4800B010204081020408090001EE47EC6
:1007B500019360BCA3FF543F30E509541FFEE49349
:1007C500A360010ECF54C025E060A840B8E493A310
:1007D500FAE493A3F8E493A3C8C582C8CAC583CA3B
:1007E500F0A3C8C582C8CAC583CADFE9DEE780BEF3
:0100210000DE
:00000001FF
